:100000000EC028C027C026C025C024C023C022C0DF
:1000100021C020C01FC01EC079C01CC01BC011243D
:100020001FBECFE5D2E0DEBFCDBF10E0A0E6B0E05E
:10003000E2E0F6E002C005900D92AC37B107D9F7C7
:1000400010E0ACE7B0E001C01D92A03CB107E1F7C1
:1000500085D1D5C2D5CF1F93CF93DF93CDB7DEB770
:1000600027970FB6F894DEBF0FBECDBFFC011FB7B8
:10007000F894862F90E063E070E089D29A838983B8
:10008000DF01119680818F8387B3842B87BB88B370
:10009000842388BB88B3842B8E8398B3842F809568
:1000A00089238D838D818C8388E08B836E817D8114
:1000B0005F813B812C8189819A81E8E3F0E0608354
:1000C00057FD262F2083272F3A9531F0551F708337
:1000D00000C000C000C0F3CF7083000038E05D9125
:1000E000019769F75F833B832C839A83898388B365
:1000F000842388BB1FBF81E027960FB6F894DEBF2C
:100100000FBECDBFDF91CF911F9108951F920F9227
:100110000FB60F9211248F939F9380919600823097
:1001200030F0809196008150809396000AC080E163
:1001300081BD11BC9091BE0080919500892B809368
:10014000BE009F918F910F900FBE0F901F9018953A
:1001500087708093970008959FB7F89480939600D6
:100160006093950080E981BD8091970081BD81B544
:10017000806481BD9FBF089590B59E7F90BD811121
:1001800002C08CE201C08CE687B98FE99FE001973D
:10019000F1F700C0000080EC86B986B18670E9F7FF
:1001A00016B880B5816080BD84B185B1089597B3DC
:1001B000962B97BB28B3962F9095292328BB28E030
:1001C00030E040E8542F582349F058B3562B58BB21
:1001D000EFE9FFE03197F1F700C0000058B3592371
:1001E00058BB4695215031092115310559F788B37F
:1001F000892388BB0895382F20E0C90196958795FB
:10020000562F40E056954795841B950B0895CF9245
:10021000DF92EF92FF920F931F93CF93DF937C01B6
:100220008B01EA01C22E222309F43FC0FC01818127
:100230008F838E819F81969587959F838E83808102
:1002400089878885998596958795998788878281FA
:100250008B878A859B85969587959B878A87F801EA
:1002600081818D8780818C8782818E878FEF820F3D
:100270008F87F7016181F8018181BDDFD12CB60143
:1002800097D179836883F7016081F8018081B3DFBA
:10029000B6018ED17B836A83F7016281F801828186
:1002A000AADFB60185D17D836C83DF91CF911F9149
:1002B0000F91FF90EF90DF90CF900895FC0187851C
:1002C00081111BC0178685858783868197819695C6
:1002D0008795978386838485818780859185969588
:1002E0008795918780878685838782859385969574
:1002F00087959387828780E00895815087878681DC
:10030000978120813181820F931F97838683808517
:10031000918522813381820F931F91878087828507
:10032000938524813581820F931F9387828781E093
:100330000895FC01DB0186819781880F991F119632
:100340009C93119780859185880F991F9C93828536
:100350009385880F991F12969C930895CF93DF93EE
:1003600000D01F92CDB7DEB7F8948FEF80BD10920A
:10037000BE0081E08093BF001092AA001092AB00F3
:100380001092AC001092AD0083E0E2DE80E0F4DE7B
:1003900061E070E090E00BDF789481E08093BF0033
:1003A0009DE2D92E2AE5B22E32E3C32E42E0A42EDE
:1003B00055E0952E8091BF0080FFCEC0D092AC005A
:1003C000D092AF00D092B200D092B500D092B800D7
:1003D000D092BB0080919400811103C09092940050
:1003E00003C08150809394008091940090E063E07A
:1003F00070E0CDD085559F4FDC011196BC92809165
:10040000930081113CC081E080939300C0929000E2
:1004100010928F0010929100C0928D0010928C006B
:10042000C0928E00A09292002AE04CE750E06CE867
:1004300070E08FE890E0EBDE07EA10E089EAE82E52
:1004400080E0F82EBE016F5F7F4F8CE790E071DF98
:10045000F70131978A8180838981F80180838B81BC
:10046000D7018C938CE790E029DF03501109B3E0AA
:10047000EB1AF108E0E008391E0721F751C047EAFE
:1004800050E0E9EAF0E0CF010497DC012C91CF01C4
:100490000197DC012C93CF010597DC018C91DA01E7
:1004A0008C93CF010397DC012C9120834350510999
:1004B000FC01B0E048395B0731F78CE790E0FEDEE5
:1004C00081112EC080918D008093900080918C00CE
:1004D00080938F0080918E008093910020919200F4
:1004E000822F90E063E070E052D0FC01E05AFF4FB1
:1004F000818180938D00808180938C0082818093A4
:100500008E00283010F42F5F01C020E0209392006D
:100510002AE04CE750E06CE870E08FE890E077DE8E
:10052000BE016F5F7F4F8CE790E003DF8A8180938D
:1005300099008981809398008B8180939A0040E193
:1005400066E088E990E087DD48E066E08BEA90E0CD
:1005500082DD61E080E000DEF8948091BE0080934F
:10056000BF001092BE008091BF00882311F07894E4
:1005700021CF85B7877E806185BF85B7806285BFC3
:100580007894889585B78F7D85BFF894E5CF002452
:10059000552704C0080E591F880F991F009729F08E
:1005A00076956795B8F37105B9F7802D952F089565
:1005B00097FB072E16F4009406D077FD08D00BD0D9
:1005C00007FC05D03EF4909581959F4F0895709556
:1005D00061957F4F0895AA1BBB1B51E107C0AA1F5D
:1005E000BB1FA617B70710F0A61BB70B881F991FD4
:1005F0005A95A9F780959095BC01CD010895F8947E
:02060000FFCF2A
:100602000032000032320000323200323200003258
:0C06120032001932001932321900320097
:00000001FF
